:100DD300C2B77F4B7E00120E1FD2B77F027E000286
:020DE3000E1FE1
:100B4300E4F53330B712E533C39414500B05337F08
:100B5300017E00120E1F80EBE533C3941440037F24
:100B63000122E4F53320B712E533C39414500B0587
:100B7300337F017E00120E1F80EBE533C3941440D4
:060B8300037F01227F0048
:010B89002249
:10000300E4F535C2B70000D2B7000030B705753547
:0F001300018003E4F5357F057E00120E1FAF3527
:0100220022BB
:100C9A00E4F533F534FFF533120003EFC43333338D
:100CAA005480FEE534C3134EF5340533E533C3945B
:050CBA000840E5AF3425
:010CBF002212
:020BCD008F3364
:100BCF00E4F534F535F534E5335401F535E533C344
:100BDF0013F533E535600FC2B70000D2B77F067E3D
:100BEF0000120E1F800DC2B77F067E00120E1FD29D
:0C0BFF00B700000534E534C3940840CB77
:010C0B0022C6
:100DE500120DD3120B437FCC120BCD7F44020BCDDA
:070E3400120DD3120B432243
:100A0800E4FFF530F531F532120DE5120DD3120B76
:100A1800437FCC120BCD7FBE120BCD120C9A8F30B8
:100A2800120C9AEFFE7C00E42530F532EC3EF531ED
:100A380054F8FEEEB4F821E532F4FFE531F4FEEFA8
:100A48002401F532E43EF531FCAD32E412023EE415
:100A5800FBFA798078BD800FAC31AD32E412023EEA
:100A6800E4FBFA7980783D1200268F2F8E2E8D2D8B
:0A0A78008C2CAF2FAE2EAD2DAC2C50
:010A82002251
:100DF500202020202020202020202020202020000E
:100D4400C2A6C2A5C2A78F807F017E00120D26D243
:0B0D5400A77F017E00120D26C2A7221F
:0A0CC000AB27AA28A9291202F8FFA9
:100CCA00D2A6C2A5C2A78F807F017E00120D26D2AE
:0B0CDA00A77F017E00120D26C2A7229A
:100DBF007F38120D447F0C120D447F06120D447FB5
:040DCF0001020D44CC
:100D79007BFF7A0D79F5E4FDFF1208E97BFF7A0D17
:090D890079F57D01E4FF0208E99F
:0808E9008F268B278A2889293C
:1008F100E4F52AEDD39401400302097BE526940F28
:100901005078EDC394015039AB27AA28A9291202C6
:10091100F86067C374109526FFE52AC39FE52A5046
:1009210006248025268004252624B0FF120D4412BA
:100931000CC074012529F529E43528F528052A80FC
:10094100C7AB27AA28A9291202F8602EC3741095F3
:1009510026FFE52AC39FE52A500624C025268004E8
:1009610025262470FF120D44120CC074012529F5AF
:0A09710029E43528F528052A80C77F
:01097B002259
:100D5F008F2CAF2C152CEF600BB2A57F647E001289
:0A0D6F000E1F80EEE4F52CC2A52251
:100B8A008E268F27E4FFFE7D207C41AB2BAA2AA963
:100B9A0029A828120026C004C005C006C007AC2632
:100BAA00AD27EC12023EA804A905AA06AB07D00796
:100BBA00D006D005D0041201CC600740057FE812A8
:030BCA000D5F229A
:100D9200402E406E65770000202020202020202059
:070DA200202020202020008A
:08049C008F0B8B0C8A0D890EF9
:1004A400E50BB44115120D797F0A7E00120D267BEF
:1004B400FF7A0D7992E4FD0205ADE50B64427069A3
:1004C400F515F516F518AB0FAA10A9118518827544
:1004D4008300120311FF602CEF642E6020EF24D000
:1004E400FFE434FFFEEF2516F516EE3515F515FE7F
:1004F400AF167C007D0A1203948E158F160518E53D
:1005040018B405C2AB12AA13A914E4120360AC1503
:10051400AD16EC12023EE4FBFA79C8784212012FC0
:10052400AB0CAA0DA90E02045EE50BAB12AA13A92B
:1005340014B4431974FF12033E1202F8AB0FAA104D
:10054400A911F582758300E4120372801E1202F869
:10055400AB0FAA10A911F582758300E50B12037283
:10056400AB12AA13A914740112033EE4F518AB0FDD
:10057400AA10A911851882758300120311FF74193A
:100584002518F8A6070518E518B405E27BFF7A0DCF
:10059400799A7D01E4FF1208E97F0A7E00120D2694
:1005A4007B007A0079197D01E4FF1208E97F0A7E55
:0405B40000120D26FE
:0105B8002220
:1007DF008B268A278928120A08E4FBFA79207841A8
:1007EF001200261202778E738F74AB29AA2AA92BB7
:1007FF00E5738574F0120431C3E5736480948050FF
:10080F0015C3E49574F574E49573F573AB26AA27B5
:10081F00A928742D8008AB26AA27A92874201203B3
:10082F0060AE73AF747C037DE81203FBEF2430AB33
:10083F0026AA27A928900001120372AE73AF747C09
:10084F00037DE81203FB7E007F64CFCDCFCECCCEED
:10085F001203FBEF2430AB26AA27A928900002121F
:10086F000372AE73AF747C037DE81203FB7E007FCF
:10087F0064CFCDCFCECCCE1203FB7E007F0ACFCD7F
:10088F00CFCECCCE1203FBEF2430AB26AA27A9285C
:10089F00900003120372900004742E120372AE7351
:1008AF00AF747C037DE81203FB7E007F64CFCDCF56
:1008BF00CECCCE1203FB7E007F0ACFCDCFCECCCED7
:1008CF001203FBED2430AB26AA27A92890000512AE
:0A08DF000372900006E41203722277
:100A830041542B43495053454E443D302C3700418C
:100A9300542B43574D4F44453D320041542B43574C
:100AA3005341503D2245535038323636222C2231A1
:100AB3003233343536222C31312C300041542B4320
:100AC300495041503D223139322E3136382E342EA1
:100AD30031220041542B4349504D55583D3100417B
:100AE300542B4349505345525645523D312C3830CF
:080AF300383000796573000042
:040CE500026C00009D
:100AFB008B378A388939AB37AA38A9391202F8FFF4
:100B0B006017120E057F057E00120E1F740125392A
:100B1B00F539E43538F53880DD7F057E00120E1F80
:100B2B007F0D120E057F057E00120E1F7F0A120E1F
:080B3B00057F0A7E00020D2671
:100C0C008B348A3589367BFF7A0A7983120AFBABDF
:100C1C0034AA35A9361202F8FF6017120E057F05AB
:100C2C007E00120E1F74012536F536E43535F53588
:070C3C0080DD7F0A020E05B6
:100C43007BFF7A0A7992120AFB7BFF7A0A799E125A
:100C53000AFB7BFF7A0A79BF120AFB7BFF7A0A79C8
:0D0C6300D6120AFB7BFF7A0A79E2020AFB37
:0C0E1300120DA9120E34120C43D2AC22B6
:100D0600056DE56D7002056CAE6CFF7C007DC8124A
:0F0D160003A6ED4C70097BFF7A0A79F6120C0CDC
:010D250022AB
:0A0E2A006E6F773A006D61783A00B0
:100CE900014800024B0000024000000249000004D4
:080CF9004241ED999A013A0015
:1005B900120E34120DBF120E13E541454060097F3A
:1005C9000A7E00120D2680F10548E54875F032844F
:1005D900E5F060030206C6F548120D79E4F5567B8D
:1005E900FF7A0E792AE4FDFF1208E97BFF7A0E797A
:1005F9002F7D01E4FF1208E90556E556C39405402D
:10060900DE7F0A7E00120D26752900752A00752BDA
:10061900467B007A00794F1207DFE4F5567B007AB2
:1006290000794FE4FD7F041208E9E4FFFE7D207C98
:1006390041AB45AA44A943A8421200261202778E6B
:100649004D8F4E7C007D641203FB8F58AE4DAF4E2B
:100659007C007D0A1203FB7C007D0A1203FB8D5985
:10066900755A2EAE4DAF4E7C007D0A1203FB8D5B91
:10067900E4F55CF55774582557F8E6642E60047460
:100689003026F60557E557B404EB7B007A00795814
:100699007D017F041208E97F0A7E00120D260556A6
:1006A900E556C39405500302062685452B85442A41
:1006B900854329854228AF47AE46120B8A120D069B
:0306C9000205C265
:030023000206CC06
:1006CC00C0E0C0F0C083C082C0D075D000C000C0F4
:0D06DC0001C002C003C004C005C006C00775
:1006E9007508002098030207C4C2987460253AF877
:1006F900A699E560B42B04053A8003753A00E53AFA
:10070900640A60030207C4F53AC2A0E5696441704E
:1007190043120D797F0A7E00120D26754900754A2C
:1007290000755700743B2557F876000557E557B40F
:1007390005F2754000754101750F007510007511BE
:100749003B7512007513007514497B007A007942D4
:100759007F418062E569B4422275400075410075A8
:100769000F0075100075113B751200751300751493
:10077900497B007A0079427F42803BE569C3943224
:100789004007E569D394394013E569C394434007A9
:10079900E569D394444005E569B42E1D750F0075CC
:1007A900100075113B7512007513007514497B0013
:0B07B9007A007942AF6912049CD2A0C4
:1007C400D007D006D005D004D003D002D001D00089
:0B07D400D0D0D082D083D0F0D0E03233
:0B0E1F00EF1FAC0670011E4C70F622A5
:100D2600D3EF9400EE940040147D6E7C00ED1D70B0
:0D0D3600011CED4C70F7EF1F70E61E80E30E
:010D4300228D
:040D0100026A000082
:100DA900439850438920758780758DFA858D8BC24C
:060DB900ACD2AFD28E2285
:0E0E0500C2ACC2998F993099FDC299D2AC222D
:100C70008B708A718972AB70AA71A9721202F8FF27
:100C80006017120E057F057E00120E1F740125727B
:0A0C9000F572E43571F57180DD2284
:10002600EC4D6011E8497017ED33EC3304600DE4D4
:10003600FCFFFEFD22E933E8330470F80202E31206
:1000460002AE58046009E4CC248150062850090207
:1000560002ED2840030202EAC0E0EB4A7044B98090
:1000660006D0E0FB0202D9EF4E701CBD8008EBFF04
:10007600EAFEE9FD80EBE98DF0A4FEE5F002010F52
:10008600E9CDF9EAFEEBFFEF89F0A4FCE5F0CE89B5
:10009600F0A42EFFE435F0CD89F0A42DFEE435F072
:1000A6008067EF4E7005BD80D780C3EF8BF0A4ACA0
:1000B600F0EE8BF0A42CFCE435F0F8EF8AF0A42CDB
:1000C600E5F038FCE433CB8DF0A42CFCE5F03BF8EE
:1000D600EE8AF0A42CFCE5F038F8E433CF89F0A4DE
:1000E6002CFCE5F038CF3400CE89F0A42FFFE5F0E4
:1000F6003EFEE433C98DF0A42EFEE5F039CD8AF03C
:10010600A42FFFE5F03EFEE43DFD33D0E0FB5007B3
:100116000BBB000F0202EDEC2CFCEF33FFEE33FEBF
:06012600ED33FD0202C5ED
:10012C000202EDEC5D046005E8590470030202E381
:10013C001202AE580460F6EC4860F2EC7004FDFE5E
:10014C00FF22C860DB2481C85009C39860025006A6
:10015C000202EA9850CAF582E9294B4A7005AB8233
:10016C000202D975F0007C1A7880C3EF9BEE9AEDF1
:10017C0099400DC3EF9BFFEE9AFEED99FDE842F01E
:10018C00DC23ACF0D0E0FFD0E0FED0E0FDAB822071
:10019C00E7101BEB60BAEC2CFCEF33FFEE33FEEDFB
:1001AC0033FD0202C5E803F830E705C0F075F00036
:1001BC00EF2FFFEE33FEED33FD40B830E7C280AADF
:1001CC0074F8CC6480CCC86480C8F582046043C3E6
:1001DC00EB9FF5F0EA9E42F0E99D42F0E89C45F079
:1001EC0060305018E5825FFFE582F42B5582FB509E
:1001FC00210ABA001D09B90019088016E5825BFBBB
:10020C00E582F42F5582FF50090EBE00050DBD008E
:10021C00010CC3EB9FF5F0EA9E42F0E99D42F0E839
:0D022C009C45F06007CC4820E701B3EC22B0
:1002390075F020800E75F010800575F0087D007E40
:10024900007F003392D530D503120450EC334010AF
:10025900EF33FFEE33FEED33FDEC33FCD5F0ED2249
:0E026900E5F0247EA2D513CC92E7CDCEFF2285
:10027700EDD2E7CD33EC3392D524814006E4FFFE7F
:10028700FDFC22FCE4CFCECDCC24E0501174FF80DE
:10029700EDC3CC13CCCD13CDCE13CECF13CF04707B
:0702A700F030D5DE02045027
:1002AE00E9D2E7C933E833F892D5EDD2E7CD33EC96
:0702BE0033FC5002B2D5220F
:1002C500EC30E7100FBF000C0EBE00080DBD00049A
:1002D5000BEB6014A2D5EB13FCED92E7FD2274FF46
:1002E500FCFDFEFF22E480F8A2D574FF13FC7D809F
:0302F500E480EFB3
:0300000002097C76
:0C097C00787FE4F6D8FD7581740209C391
:1002F800BB010689828A83E0225002E722BBFE0204
:09030800E32289828A83E4932236
:10031100BB010CE58229F582E5833AF583E02250A1
:1003210006E92582F8E622BBFE06E92582F8E222EB
:0D033100E58229F582E5833AF583E4932205
:10033E00BB010989828A83F8E028F022500327F74F
:10034E0022BBFE05F8E328F3228A838982F8E49320
:02035E00282253
:10036000BB010689828A83F0225002F722BBFE017C
:02037000F32276
:10037200F8BB010DE58229F582E5833AF583E8F0C1
:10038200225006E92582C8F622BBFE05E92582C86D
:02039200F22255
:10039400EF8DF0A4A8F0CF8CF0A428CE8DF0A42E7D
:0203A400FE2237
:1003A600BC000BBE0029EF8DF084FFADF022E4CC3B
:1003B600F875F008EF2FFFEE33FEEC33FCEE9DEC04
:1003C600984005FCEE9DFE0FD5F0E9E4CEFD22ED4A
:1003D600F8F5F0EE8420D21CFEADF075F008EF2F94
:1003E600FFED33FD4007985006D5F0F222C398FD85
:0503F6000FD5F0EA2222
:1003FB00C2D5EC30E709B2D5E4C39DFDE49CFCEE1D
:10040B0030E715B2D5E4C39FFFE49EFE1203A6C3EB
:10041B00E49DFDE49CFC80031203A630D507C3E4E6
:06042B009FFFE49EFE228B
:10043100BB010A89828A83F0E5F0A3F0225006F716
:0F04410009A7F01922BBFE06F3E5F009F3192213
:0E045000C3E49FFFE49EFEE49DFDE49CFC22BD
:10045E00BB010789828A830204845005E9F80204ED
:0A046E0078BBFE05E9F802049022B5
:100988000205B9E493A3F8E493A34003F68001F2C7
:1009980008DFF48029E493A3F85407240CC8C33370
:1009A800C4540F4420C8834004F456800146F6DF3F
:1009B800E4800B0102040810204080900CE5E47EDE
:1009C800019360BCA3FF543F30E509541FFEE49334
:1009D800A360010ECF54C025E060A840B8E493A3FB
:1009E800FAE493A3F8E493A3C8C582C8CAC583CA26
:1009F800F0A3C8C582C8CAC583CADFE9DEE780BEDE
:010D050000ED
:0C047800ECF608EDF608EEF608EFF622B0
:0C048400ECF0A3EDF0A3EEF0A3EFF022EB
:0C049000ECF208EDF208EEF208EFF222A8
:00000001FF
